:100000000C942A000C943F000C943F000C943F0089
:100010000C943F000C943F000C943F000C943F0064
:100020000C943F000C943F000C943F000C943F0054
:100030000C943F000C943F000C943F000C943F0044
:100040000C943F000C943F000C943F000C943F0034
:100050000C943F0011241FBECFE5D8E0DEBFCDBF1A
:1000600010E0A0E6B0E0E8E8F5E002C005900D92EF
:10007000A836B107D9F70E943E010C94C2020C9435
:10008000000017B883E886B9089597B1907E97B9B4
:1000900097B18770982B97B9369A349BFECF349AD4
:1000A00084B195B10895D998DA98EFECF7E03197DB
:1000B000F1F700C00000DB9AEFECF7E03197F1F7C1
:1000C00000C000009BB39F70282F207F922B9BBB0A
:1000D000EFECF7E03197F1F700C00000DB98EFECB0
:1000E000F7E03197F1F700C00000DB9AEFECF7E0A2
:1000F0003197F1F700C000002BB32F70F0E18F9F14
:10010000C0011124822B8BBB8FEC97E00197F1F794
:1001100000C00000DB98EFECF7E03197F1F700C08A
:10012000000008958AB38E608ABB8AB3806F8ABB51
:1001300082E00E94530088E20E9453008CE00E94FB
:10014000530081E00E9453000895D99ADA98EFECA9
:10015000F7E03197F1F700C00000DB9AEFECF7E031
:100160003197F1F700C000009BB39F70282F207FCC
:10017000922B9BBBEFECF7E03197F1F700C000004A
:10018000DB98EFECF7E03197F1F700C00000DB9A65
:10019000EFECF7E03197F1F700C000002BB32F70C0
:1001A000F0E18F9FC0011124822B8BBB8FEC97E075
:1001B0000197F1F700C00000DB98EFECF7E0319712
:1001C000F1F700C0000008950F931F93CF93FC0137
:1001D0008081882359F08F01C0E00E94A500CF5F85
:1001E000F801EC0FF11D80818111F7CFCF911F91A4
:1001F0000F910895813041F028F0823041F0833032
:1002000049F00AC0962F08C090E4960F05C090E10F
:10021000960F02C090E5960F892F80680E945300C8
:100220000895CF93DF93CDB7DEB760970FB6F894FC
:10023000DEBF0FBECDBF4AE050E0BE016F5F7F4F13
:100240000E948202CE0101960E94E40060960FB6E1
:10025000F894DEBF0FBECDBFDF91CF91089580E04F
:100260000E944500BC0180E090E00E94870120E0F0
:1002700030E040E85EE30E94ED0108950E949200A4
:100280000E94410080E690E00E94E4000E942F015D
:100290006B017C0167E080E00E94FA00C701B601B3
:1002A0000E9458018FEF860F90E00E941101EECF5F
:1002B0000E94CC0188F09F5798F0B92F9927B75129
:1002C000B0F0E1F0660F771F881F991F1AF0BA95FA
:1002D000C9F714C0B13091F00E94E601B1E0089571
:1002E0000C94E601672F782F8827B85F39F0B93F63
:1002F000CCF3869577956795B395D9F73EF49095AD
:100300008095709561957F4F8F4F9F4F0895E8942A
:1003100009C097FB3EF490958095709561957F4F4D
:100320008F4F9F4F9923A9F0F92F96E9BB279395FB
:10033000F695879577956795B795F111F8CFFAF40B
:10034000BB0F11F460FF1BC06F5F7F4F8F4F9F4F3C
:1003500016C0882311F096E911C0772321F09EE89A
:10036000872F762F05C0662371F096E8862F70E000
:1003700060E02AF09A95660F771F881FDAF7880FDA
:100380009695879597F9089557FD9058440F551FF6
:1003900059F05F3F71F04795880F97FB991F61F007
:1003A0009F3F79F087950895121613061406551F7E
:1003B000F2CF4695F1DF08C0161617061806991FEA
:1003C000F1CF86957105610508940895E894BB27DF
:1003D00066277727CB0197F908950E9400020C94B5
:1003E00071020E94630238F00E946A0220F0952395
:1003F00011F00C945A020C94600211240C94E70141
:100400000E94C40170F3959FC1F3950F50E0551FF2
:10041000629FF001729FBB27F00DB11D639FAA2759
:10042000F00DB11DAA1F649F6627B00DA11D661FA8
:10043000829F2227B00DA11D621F739FB00DA11DC9
:10044000621F839FA00D611D221F749F3327A00D83
:10045000611D231F849F600D211D822F762F6A2F1F
:1004600011249F5750409AF0F1F088234AF0EE0F84
:10047000FF1FBB1F661F771F881F91505040A9F7B1
:100480009E3F510580F00C945A020C94E7015F3FA7
:10049000E4F3983ED4F3869577956795B795F795ED
:1004A000E7959F5FC1F7FE2B880F911D9695879565
:1004B00097F9089597F99F6780E870E060E00895E4
:1004C0009FEF80EC089500240A941616170618066C
:1004D0000906089500240A94121613061406050648
:1004E0000895092E0394000C11F4882352F0BB0FD9
:1004F00040F4BF2B11F460FF04C06F5F7F4F8F4F3C
:100500009F4F08954532510520F4423010F00C946D
:100510008D02FB011082CB010895BB274A3031F4D4
:10052000992322F4BDE2909581959F4F0C949902F6
:10053000BB27FB015527AA27880F991FAA1FA417BD
:1005400010F0A41B83955051B9F7A05DAA3308F0B1
:10055000A95DA193009779F7B111B1931192CB01E5
:100560000C94B202DC01FC01672F71917723E1F753
:10057000329704C07C916D9370836291AE17BF0770
:08058000C8F30895F894FFCFC1
:0805880054656D70203D200058
:00000001FF
