:100000000C9450000C946D000C946D000C946D00D9
:100010000C946E030C9445030C946D000C941C031B
:100020000C94F3020C94CA020C9474020C94A10276
:100030000C946D000C946D000C946D000C946D008C
:100040000C942E010C946D000C946D000C946D00BA
:100050000C946D00B600BA00C100C800CF00D600F5
:10006000DD00E400F500F900FE00030108010D01C8
:100070001201F604FA04FE04020506050E050A053F
:10008000210525052D05350539053D053D052905C4
:1000900031054C055005540558055C05640560059F
:1000A00011241FBECFE5D8E0DEBFCDBF10E0A0E633
:1000B000B0E0ECE6FBE002C005900D92A437B1077A
:1000C000D9F720E0A4E7B0E001C01D92A438B20740
:1000D000E1F70E9464020C94B4050C94000097B1FF
:1000E000907E97B997B18F71982B97B980E008955A
:1000F0001F93CF93DF93EC018881813049F018F092
:10010000823051F00EC087B18F7387B910E00AC0FA
:100110003F983E9A10E006C087B1806C87B910E026
:1001200001C011E08A81882321F0813021F43D9AB9
:1001300003C03D9801C011E080E00E946F00379A33
:100140008B81882319F0813019F004C0359803C0E1
:10015000359A01C011E0EC818E2F90E08830910536
:10016000B8F5FC01E65DFF4F0C946E0580B78F710A
:1001700080BF2FC080B78F7380BF80B7806280BF81
:1001800028C080B78F7580BF80B7806480BF21C0D2
:1001900080B78F7780BF80B7806680BF1AC080B776
:1001A0008F7980BF80B7806880BF13C080B78F7B96
:1001B00080BF80B7806A80BF0CC080B78F7D80BF52
:1001C00080B7806C80BF05C080B7806E80BF01C0E3
:1001D00011E0ED818E2F90E0FC013197E730F105C1
:1001E00028F5EE5CFF4F0C946E0586B1887F86B9CA
:1001F0001EC086B18A7F86B9319A19C0329886B1FD
:10020000836086B914C086B18C7F86B9329A0FC0DC
:10021000319886B1856086B90AC0309886B186600B
:1002200086B905C086B1876086B901C011E08E81AC
:10023000882319F0813019F005C0339804C07894F0
:10024000339A01C011E0812FDF91CF911F91089562
:10025000909375008093740080E008951F920F9230
:100260000FB60F9211242F933F934F935F936F9389
:100270007F938F939F93AF93BF93EF93FF9380915F
:10028000740090917500892B91F08091680088230B
:1002900029F0813029F485B184B102C084B185B1DF
:1002A000E0917400F091750084B195B10995FF91CA
:1002B000EF91BF91AF919F918F917F916F915F91DE
:1002C0004F913F912F910F900FBE0F901F90189557
:1002D000D998DA98EFECF7E03197F1F700C0000019
:1002E000DB9AEFECF7E03197F1F700C000009BB329
:1002F0009F70282F207F922B9BBBEFECF7E031976C
:10030000F1F700C00000DB98EFECF7E03197F1F770
:1003100000C00000DB9AEFECF7E03197F1F700C086
:1003200000002BB32F70F0E18F9FC0011124822BAE
:100330008BBB8FEC97E00197F1F700C00000DB98D2
:10034000EFECF7E03197F1F700C0000008958AB3B1
:100350008E608ABB8AB3806F8ABB82E00E9468018C
:1003600088E20E9468018CE00E94680181E00E949E
:1003700068010895D99ADA98EFECF7E03197F1F730
:1003800000C00000DB9AEFECF7E03197F1F700C016
:1003900000009BB39F70282F207F922B9BBBEFEC1C
:1003A000F7E03197F1F700C00000DB98EFECF7E0E1
:1003B0003197F1F700C00000DB9AEFECF7E03197DE
:1003C000F1F700C000002BB32F70F0E18F9FC00148
:1003D0001124822B8BBB8FEC97E00197F1F700C0C3
:1003E0000000DB98EFECF7E03197F1F700C0000078
:1003F00008950F931F93CF93FC018081882359F0B8
:100400008F01C0E00E94BA01CF5FF801EC0FF11D2F
:1004100080818111F7CFCF911F910F910895813085
:1004200041F028F0823041F0833049F00AC0962F25
:1004300008C090E4960F05C090E1960F02C090E5C9
:10044000960F892F80680E9468010895CF93DF93EB
:10045000EA010E940F02CE010E94F901DF91CF91C3
:100460000895CF93DF93CDB7DEB760970FB6F894BA
:10047000DEBF0FBECDBF4AE050E0BE016F5F7F4FD1
:100480000E947405CE0101960E94F90160960FB694
:10049000F894DEBF0FBECDBFDF91CF910895CF930B
:1004A000DF93EC014DE650E060E070E080E090E02A
:1004B0000E942602CE0196958795969587950E9473
:1004C0003102DF91CF9108950E94A70180E00E9440
:1004D00097030E9478048FE492E00E94280186E648
:1004E00090E00E947800FFCF1F920F920FB60F92FC
:1004F00011242F933F934F935F936F937F938F9329
:100500009F93AF93BF93EF93FF939BB380E18927B2
:100510008BBBE0918000F0918100309709F0099544
:10052000FF91EF91BF91AF919F918F917F916F91CB
:100530005F914F913F912F910F900FBE0F901F90A1
:1005400018951F920F920FB60F9211242F933F937D
:100550004F935F936F937F938F939F93AF93BF93CB
:10056000EF93FF93E0918200F0918300309709F0C0
:100570000995FF91EF91BF91AF919F918F917F91DD
:100580006F915F914F913F912F910F900FBE0F9000
:100590001F9018951F920F920FB60F9211242F9350
:1005A0003F934F935F936F937F938F939F93AF93FB
:1005B000BF93EF93FF93E0917E00F0917F0030971F
:1005C00009F00995FF91EF91BF91AF919F918F91A4
:1005D0007F916F915F914F913F912F910F900FBE3F
:1005E0000F901F9018951F920F920FB60F92112423
:1005F0002F933F934F935F936F937F938F939F932B
:10060000AF93BF93EF93FF93E0917A00F0917B005B
:10061000309709F00995FF91EF91BF91AF919F91AC
:100620008F917F916F915F914F913F912F910F909B
:100630000FBE0F901F9018951F920F920FB60F923A
:1006400011242F933F934F935F936F937F938F93D7
:100650009F93AF93BF93EF93FF93E0917C00F09152
:100660007D00309709F00995FF91EF91BF91AF910F
:100670009F918F917F916F915F914F913F912F91BA
:100680000F900FBE0F901F9018951F920F920FB6EC
:100690000F9211242F933F934F935F936F937F9308
:1006A0008F939F93AF93BF93EF93FF93E091780065
:1006B000F0917900309709F00995FF91EF91BF9182
:1006C000AF919F918F917F916F915F914F913F91EA
:1006D0002F910F900FBE0F901F9018951F920F92A1
:1006E0000FB60F9211242F933F934F935F936F9305
:1006F0007F938F939F93AF93BF93EF93FF93E0917B
:100700007600F0917700309709F00995FF91EF910D
:10071000BF91AF919F918F917F916F915F914F9119
:100720003F912F910F900FBE0F901F901895E0E60C
:10073000F0E0808395819111DAC091E095839181F9
:10074000992319F0913029F155C08130A1F018F0AA
:10075000823049F01BC085E082BF83B7877B83BFAF
:1007600080E883BF49C085E084BD85B5877B85BDB2
:1007700080E885BD41C085E09FEF9DBD8CBD8FB5F4
:100780008C7F8FBD8EB5877E8EBD36C01092650082
:1007900033C08130E1F018F0823069F028C012BE19
:1007A00083B7886083BF83B78F7B83BF80E883BFB5
:1007B0008AEF8CBF21C014BC85B5886085BD85B526
:1007C0008F7B85BD80E885BD8AEF83BD15C01DBCCC
:1007D0001CBC8FB58C7F8FBD8EB588608EBD8EB5ED
:1007E0008F7E8EBD8AEF90E09BBD8ABD05C01092C2
:1007F000650002C010926500809162008130F1F0C6
:1008000030F08230D9F1833009F458C06EC0809145
:100810006000813061F018F0823029F00CC083B79D
:100820008F7C83BF089585B58F7C85BD08958FB576
:100830008F738FBD089510926500089580916000B8
:10084000813091F018F0823041F015C083B78F7D70
:1008500083BF83B7806183BF089585B58F7D85BDD4
:1008600085B5806185BD08958FB58F778FBD8FB5B4
:1008700080648FBD08951092650008958091600096
:10088000813091F018F0823041F015C083B780625A
:1008900083BF83B78F7E83BF089585B5806285BD92
:1008A00085B58F7E85BD08958FB580648FBD8FB56A
:1008B0008F778FBD08951092650008958091600034
:1008C000813061F018F0823029F00CC083B780636A
:1008D00083BF089585B5806385BD08958FB5806C0D
:1008E0008FBD0895109265000895109265000895D7
:1008F00080916500813009F063C080916400882395
:1009000009F445C0813009F059C0789480916000A5
:10091000813041F118F0823099F036C08091610049
:10092000882319F0813029F008C089B7816089BF18
:1009300047C089B7826089BF43C0109265004AC032
:1009400080916100882319F0813029F008C089B7AF
:10095000806489BF35C089B7806889BF31C0109273
:10096000650063C080916100882319F0813029F00F
:1009700008C089B7846089BF23C089B7806189BFF7
:100980001FC0109265007CC01092650019C0809154
:100990006000813061F018F0823029F00CC089B716
:1009A0008C7F89BF0DC089B78F7389BF09C089B794
:1009B000837E89BF05C01092650002C01092650059
:1009C00080916000813009F45BC020F0823009F032
:1009D00082C02BC0E09163008E2F90E0873091059C
:1009E00008F5FC01E75CFF4F0C946E0583B781604E
:1009F00083BF089583B7826083BF089583B7836000
:100A000083BF089583B7846083BF089583B78560EB
:100A100083BF089583B7866083BF089583B78760D7
:100A200083BF0895109265000895E09163008E2FB2
:100A300090E08930910508F5FC01E05CFF4F0C94D3
:100A40006E0585B5816085BD089585B5826085BDDB
:100A5000089585B5836085BD089585B5846085BD9D
:100A6000089585B5856085BD089585B5866085BD89
:100A7000089585B5876085BD089510926500089535
:100A8000E09163008E2F90E08730910508F5FC011E
:100A9000E75BFF4F0C946E058EB581608EBD0895A7
:100AA0008EB582608EBD08958EB583608EBD08952B
:100AB0008EB584608EBD08958EB585608EBD089517
:100AC0008EB586608EBD08958EB587608EBD089503
:100AD000109265000895109265000895EE0FFF1FB3
:100AE0000590F491E02D09944532510520F44230EF
:100AF00010F00C947F05FB011082CB010895BB27F9
:100B00004A3031F4992322F4BDE2909581959F4FAC
:100B10000C948B05BB27FB015527AA27880F991F2B
:100B2000AA1FA41710F0A41B83955051B9F7A05D1C
:100B3000AA3308F0A95DA193009779F7B111B19399
:100B40001192CB010C94A405DC01FC01672F71917B
:100B50007723E1F7329704C07C916D9370836291A3
:0C0B6000AE17BF07C8F30895F894FFCF4C
:100B6C000000000401000205000104060174656D1B
:040B7C00703D2000A8
:00000001FF
